:020000040800F2
:1080000000800020ED890008258700082D870008E2
:10801000358700083D8700084587000800000000FC
:108020000000000000000000000000004D87000874
:108030005B87000800000000698700087787000858
:108040003D8A00083D8A00083D8A00083D8A0008F4
:108050003D8A00083D8A00083D8A00083D8A0008E4
:108060003D8A00083D8A00083D8A00083D8A0008D4
:108070003D8A00083D8A00083D8A00083D8A0008C4
:108080003D8A0008000000003D8A00083D8A000883
:108090003D8A00083D8A00083D8A00083D8A0008A4
:1080A0003D8A00083D8A00083D8A00083D8A000894
:1080B0003D8A00083D8A00083D8A00083D8A000884
:1080C0003D8A00083D8A00083D8A00083D8A000874
:1080D0003D8A00083D8A00083D8A00083D8A000864
:1080E0003D8A00083D8A00083D8A00083D8A000854
:1080F0003D8A00083D8A00083D8A00080000000013
:10810000000000003D8A0008000000003D8A0008D1
:108110003D8A0008000000003D8A00083D8A0008F2
:108120003D8A00083D8A00083D8A00083D8A000813
:108130003D8A000800000000000000003D8A0008A1
:108140003D8A00083D8A0008000000000000000091
:10815000000000000000000000000000000000001F
:108160000000000000000000000000003D8A000840
:108170003D8A000800000000000000000000000030
:10818000000000003D8A0008000000000000000020
:1081900000000000000000000000000000000000DF
:1081A00000000000000000003D8A00083D8A000831
:1081B0003D8A00083D8A00083D8A00080000000052
:1081C000000000003D8A00080000000000000000E0
:0881D0003D8A00083D8A000809
:1081D80010B5054C237833B9044B13B10448AFF3F9
:1081E80000800123237010BD6800002000000000FB
:1081F8004CB3000808B5034B1BB103490348AFF360
:10820800008008BD000000006C0000204CB300088E
:1082180053B94AB9002908BF00281CBF4FF0FF31E5
:108228004FF0FF3000F088B9ADF1080C6DE904CECD
:1082380000F006F8DDF804E0DDE9022304B0704739
:108248002DE9F047089D0F4604468C46002B48D17F
:108258008A42164661D9B2FA82F34BB1C3F12002C1
:1082680001FA03FC20FA02F29E4042EA0C0C9C4000
:108278004FEA164EB7B2BCFBFEF1220C0EFB11CC36
:1082880042EA0C4201FB07F0904209D9B21801F109
:10829800FF3C80F0EE80904240F2EB80023932449D
:1082A800121AA4B2B2FBFEF00EFB102244EA0244FA
:1082B80000FB07F7A74209D9341900F1FF3280F013
:1082C800DA80A74240F2D7803444023840EA0140BD
:1082D800E41B00211DB1DC400023C5E90043BDE8D3
:1082E800F0878B4206D90DB1C5E900010021084687
:1082F800BDE8F087B3FA83F1002948D1BB4202D325
:10830800824200F20781841A67EB03020120944637
:10831800002DE4D0C5E9004CE1E7002A00F0928086
:10832800B2FA82F3002B40F0A8808A1A4FEA164E60
:108338001FFA86FC0121200CB2FBFEF70EFB172268
:1083480040EA02420CFB07F0904207D9B21807F145
:10835800FF3802D2904200F2E2804746121AA4B2D5
:10836800B2FBFEF00EFB102244EA02440CFB00FCB8
:10837800A44507D9341900F1FF3202D2A44500F20E
:10838800CB801046A4EB0C0440EA0740A2E7C1F1F9
:1083980020068B4022FA06FC4CEA030C07FA01F48B
:1083A80020FA06F3F7404FEA1C49234300FA01F884
:1083B8001FFA8CFEB7FBF9F01C0C09FB107744EA96
:1083C800074400FB0EF7A74202FA01F20AD91CEB98
:1083D800040400F1FF3A80F09B80A74240F29880A5
:1083E80002386444E41B9FB2B4FBF9F309FB13445D
:1083F80047EA044403FB0EFEA64509D91CEB040416
:1084080003F1FF3780F08280A6457FD9023B6444A0
:1084180043EA0040A4EB0E04A0FB02E7BC4273460B
:10842800B94663D360D05DB1B8EB030264EB0904CD
:1084380004FA06F622FA01F31E43CC40C5E90064AB
:1084480000214CE76208480842EAC1710B0C43EA74
:1084580000438AB242EA0342B3FBF6F1E407B446AA
:108468003746B6461F23B0FBF6F0D21B41EA00415F
:1084780061E7614614E7104628E7C3F1200120FAB6
:1084880001F29E4027FA01F19F403A434FEA164E07
:108498001FFA86FCB1FBFEF70EFB1710110C41EA20
:1084A800004107FB0CF8884504FA03F43AD971181F
:1084B80007F1FF3001D288451FD8A1EB0801B1FBB5
:1084C800FEF808FB0CF70EFB181192B242EA0142C3
:1084D800BA422FD2B21808F1FF31C6D2BA42C4D27A
:1084E800A8F102013244C0E7F0459CD2BEEB02037A
:1084F80067EB0C070138B94695E7A6EB0808414435
:10850800B81EB1FBFEF808FB0CF7DCE73B467FE73B
:10851800504667E70846FBE63444023832E7023F34
:1085280032441BE7A1EB08013846B1FBFEF808FB13
:108538000CF7C8E7414698E7704700BF80B588B098
:1085480000AF07F10C0300221A605A609A60DA60E3
:108558001A611B4BDB6C1A4A43F00403D364184BB3
:10856800DB6C03F00403BB60BB68154BDB6C144A7F
:1085780043F02003D364124BDB6C03F020037B60D1
:108588007B680F4BDB6C0E4A43F00103D3640C4B42
:10859800DB6C03F001033B603B6801233B61202354
:1085A800FB6000237B610223BB6107F10C031946C2
:1085B8004FF0904000F0B6FB00BF2037BD4680BDAD
:1085C8000010024080B500AF00F035FA00F01AF84C
:1085D80000F088F9FFF7B2FF084802F027FB0848C7
:1085E80002F024FB20214FF0904000F027FD4FF4CB
:1085F800FA7000F091FA00BFF1E700BF64B3000819
:108608007CB3000880B594B000AF07F11803382296
:108618000021184602F0E8FB3B1D00221A605A6050
:108628009A60DA601A61002000F022FD0223BB6123
:108638004FF480737B624023BB6202237B63022377
:10864800BB630423FB6355233B6402237B6402233F
:10865800BB640223FB6407F11803184600F0BCFD55
:108668000346002B01D000F018F80F237B6003238A
:10867800BB600023FB6000233B6100237B613B1D43
:108688000421184601F0BAF80346002B01D000F087
:1086980004F800BF5037BD4680BD80B400AF72B645
:1086A80000BF00BFFDE7000080B584B000AF786070
:1086B8007B68DBB2FB7307F10F014FF0FF33012238
:1086C800034801F011FB7B6818461037BD4680BD92
:1086D8008800002080B582B000AF0F4B1B6E0E4A99
:1086E80043F0010313660C4B1B6E03F001037B6020
:1086F8007B68094B9B6D084A43F080539365064B92
:108708009B6D03F080533B603B6800F055FD00BF54
:108718000837BD4680BD00BF0010024080B400AFDE
:1087280000BFFDE780B400AF00BFFDE780B400AF35
:1087380000BFFDE780B400AF00BFFDE780B400AF25
:1087480000BFFDE780B400AF00BFBD465DF8047B05
:10875800704780B400AF00BFBD465DF8047B70472A
:1087680080B400AF00BFBD465DF8047B704780B59C
:1087780000AF00F0B3F900BF80BD80B586B000AF90
:10878800F860B9607A6000237B610AE0AFF300808B
:108798000146BB685A1CBA60CAB21A707B690133B9
:1087A8007B617A697B689A42F0DB7B6818461837E8
:1087B800BD4680BD80B586B000AFF860B9607A600C
:1087C80000237B6109E0BB685A1CBA601B78184615
:1087D800FFF76AFF7B6901337B617A697B689A429C
:1087E800F1DB7B6818461837BD4680BD80B483B07E
:1087F80000AF78604FF0FF3318460C37BD465DF880
:10880800047B704780B483B000AF786039603B6800
:108818004FF400525A60002318460C37BD465DF8E5
:10882800047B704780B483B000AF7860012318469A
:108838000C37BD465DF8047B704780B485B000AF47
:10884800F860B9607A60002318461437BD465DF8B1
:10885800047B704780B586B000AF7860144A154B2A
:10886800D31A7B617B693B61134B1B68002B02D1D8
:10887800114B124A1A60104B1A687B6813443A6904
:108888009A4207D202F0FEFA03460C221A604FF011
:10889800FF3309E0084B1B68FB60074B1A687B68CD
:1088A8001344054A1360FB6818461837BD4680BD57
:1088B80000800020000400008400002070020020D6
:1088C80080B400AF064BD3F88830054A43F47003F0
:1088D800C2F8883000BFBD465DF8047B704700BF12
:1088E80000ED00E080B588B000AF07F10C0300226E
:1088F8001A605A609A60DA601A61374BDB6C364A44
:1089080043F00103D364344BDB6C03F00103BB6019
:10891800BB68314B9B6D304A43F4003393652E4B53
:108928009B6D03F400337B607B680C23FB600223A0
:108938003B6100237B610323BB610723FB6107F1D4
:108948000C0319464FF0904000F0ECF9234B244AF1
:108958001A60224B4FF4E1325A60204B00229A6091
:108968001E4B0022DA601D4B00221A611B4B0C22A1
:108978005A611A4B00229A61184B0022DA61174B90
:1089880000221A62154B00225A62144801F052F96B
:108998000346002B01D0FFF780FE00210F4801F0AD
:1089A80061FF0346002B01D0FFF777FE00210B483B
:1089B80001F096FF0346002B01D0FFF76EFE074833
:1089C80001F017FF0346002B01D0FFF766FE00BF3A
:1089D8002037BD4680BD00BF00100240880000203F
:1089E800004400400D488546FFF76AFF0C480D49D2
:1089F8000D4A002302E0D458C4500433C4188C42F2
:108A0800F9D30A4A0A4C002301E013600432A24257
:108A1800FBD302F03DFAFFF7D5FDFEE7008000200A
:108A28000000002068000020E4B30008680000206F
:108A38006C020020FEE780B582B000AF0023FB7116
:108A4800032000F03DF9002000F00EF80346002B4B
:108A580002D00123FB7101E0FFF73CFEFB791846C9
:108A68000837BD4680BD000080B584B000AF78608F
:108A78000023FB73164B1B68002B22D0154B1A687A
:108A8800134B1B684FF47A71B1FBF3F3B2FBF3F3AA
:108A9800184600F03AF90346002B0FD17B680F2BDC
:108AA80009D8002279684FF0FF3000F014F90A4A1B
:108AB8007B68136007E00123FB7304E00123FB7369
:108AC80001E00123FB73FB7B18461037BD4680BDD0
:108AD80008000020000000200400002080B400AF3F
:108AE800054B1A68054B1B681344034A136000BF03
:108AF800BD465DF8047B70471C010020080000207B
:108B080080B400AF034B1B681846BD465DF8047B74
:108B1800704700BF1C01002080B584B000AF7860AA
:108B2800FFF7EEFFB8607B68FB60FB68B3F1FF3FBF
:108B380004D0094B1B68FA681344FB6000BFFFF7B9
:108B4800DFFF0246BB68D31AFA689A42F7D800BF1B
:108B580000BF1037BD4680BD0800002080B485B036
:108B680000AF78607B6803F00703FB600C4BDB68A1
:108B7800BB60BA684FF6FF031340BB60FB681A027C
:108B8800BB68134343F0BF6343F40033BB60044A3C
:108B9800BB68D36000BF1437BD465DF8047B7047DF
:108BA80000ED00E080B400AF044BDB681B0A03F063
:108BB80007031846BD465DF8047B704700ED00E0EA
:108BC80080B483B000AF03463960FB7197F9073072
:108BD800002B0ADB3B68DAB20C4997F9073012011F
:108BE800D2B20B4483F800230AE03B68DAB20849A2
:108BF800FB7903F00F03043B1201D2B20B441A763F
:108C080000BF0C37BD465DF8047B704700E100E00B
:108C180000ED00E080B489B000AFF860B9607A6018
:108C2800FB6803F00703FB61FB69C3F10703042B2F
:108C380028BF0423BB61FB690433062B02D9FB69F7
:108C4800033B00E000237B614FF0FF32BB6902FA6F
:108C580003F3DA43BB681A407B699A404FF0FF314F
:108C68007B6901FA03F3D9437B680B401343184629
:108C78002437BD465DF8047B7047000080B582B09C
:108C880000AF78607B68013BB3F1807F01D301239B
:108C98000FE00A4A7B68013B53600F214FF0FF3019
:108CA800FFF78EFF054B00229A60044B07221A60DB
:108CB800002318460837BD4680BD00BF10E000E01D
:108CC80080B582B000AF78607868FFF747FF00BFD3
:108CD8000837BD4680BD80B586B000AF0346B96091
:108CE8007A60FB73FFF75EFF78617A68B968786924
:108CF800FFF790FF024697F90F3011461846FFF725
:108D08005FFF00BF1837BD4680BD80B582B000AF99
:108D180078607868FFF7B2FF034618460837BD4603
:108D280080BD000080B487B000AF78603960002350
:108D38007B6164E13B681A6801217B6901FA03F3EE
:108D48001340FB60FB68002B00F056813B685B68B2
:108D580003F00303012B05D03B685B6803F00303B2
:108D6800022B30D17B689B683B617B695B000322E7
:108D780002FA03F3DB433A6913403B613B68DA6864
:108D88007B695B0002FA03F33A6913433B617B6832
:108D98003A699A607B685B683B6101227B6902FAE9
:108DA80003F3DB433A6913403B613B685B681B098B
:108DB80003F001027B6902FA03F33A6913433B614A
:108DC8007B683A695A603B685B6803F00303032BCE
:108DD80009D13B685B6803F00303032B1BD13B6895
:108DE8009B68012B17D07B68DB683B617B695B0064
:108DF800032202FA03F3DB433A6913403B613B6801
:108E08009A687B695B0002FA03F33A6913433B6192
:108E18007B683A69DA603B685B6803F00303022BFE
:108E280023D17B69DA087B68083253F822303B612A
:108E38007B6903F007039B000F2202FA03F3DB436D
:108E48003A6913403B613B681A697B6903F0070381
:108E58009B0002FA03F33A6913433B617B69DA0822
:108E68007B680832396943F822107B681B683B61CC
:108E78007B695B00032202FA03F3DB433A69134080
:108E88003B613B685B6803F003027B695B0002FAA5
:108E980003F33A6913433B617B683A691A603B689C
:108EA8005B6803F44033002B00F0A6805B4B1B6E1D
:108EB8005A4A43F001031366584B1B6E03F0010333
:108EC800BB60BB68564A7B699B08023352F8233063
:108ED8003B617B6903F003039B000F2202FA03F353
:108EE800DB433A6913403B617B68B3F1904F1FD075
:108EF8007B684C4A934219D07B684B4A934213D003
:108F08007B684A4A93420DD07B68494A934207D00E
:108F18007B68484A934201D105230AE0062308E00A
:108F2800042306E0032304E0022302E0012300E017
:108F380000237A6902F00302920093403A691343CE
:108F48003B6137497B699B0802333A6941F8232022
:108F5800394B9B683B61FB68DB433A6913403B61D3
:108F68003B685B6803F48013002B03D03A69FB6805
:108F780013433B61304A3B6993602F4BDB683B618D
:108F8800FB68DB433A6913403B613B685B6803F469
:108F98000013002B03D03A69FB6813433B61264A50
:108FA8003B69D360244B5B683B61FB68DB433A69F0
:108FB80013403B613B685B6803F40033002B03D02C
:108FC8003A69FB6813433B611B4A3B6953601A4B80
:108FD8001B683B61FB68DB433A6913403B613B68B4
:108FE8005B6803F48033002B03D03A69FB681343B2
:108FF8003B61114A3B6913607B6901337B613B68C4
:109008001A687B6922FA03F3002B7FF493AE00BF42
:1090180000BF1C37BD465DF8047B70470010024056
:10902800000001400004004800080048000C004807
:1090380000100048001400480004014080B485B0C6
:1090480000AF78600B467B807B685B69FB607A8841
:10905800FB6813401A04FB68D9437B880B401A430A
:109068007B689A6100BF1437BD465DF8047B704782
:1090780080B485B000AF78607B68002B41D14B4B42
:109088001B6803F4C063B3F5806F31D1474BD3F845
:109098008030464A23F48073C2F88030434B1B6803
:1090A80023F4C063414A43F400731360404B1B68C8
:1090B800322202FB03F33F4AA2FB03239B0C01333A
:1090C800FB6002E0FB68013BFB60384B5B6903F423
:1090D8008063B3F5806F02D1FB68002BF2D1334B6C
:1090E8005B6903F48063B3F5806F58D1032357E0BD
:1090F8002E4BD3F880302D4A23F48073C2F8803089
:109108004DE07B68B3F5007F41D1284B1B6803F421
:10911800C063B3F5806F31D1244BD3F88030234A34
:1091280043F48073C2F88030204B1B6823F4C0637B
:109138001E4A43F4007313601D4B1B68322202FB66
:1091480003F31C4AA2FB03239B0C0133FB6002E0E0
:10915800FB68013BFB60154B5B6903F48063B3F567
:10916800806F02D1FB68002BF2D1104B5B6903F4CE
:109178008063B3F5806F12D1032311E00B4BD3F852
:1091880080300A4A43F48073C2F8803007E0074B06
:109198001B6823F4C063054A43F48063136000230B
:1091A80018461437BD465DF8047B704700700040D0
:1091B8000000002083DE1B4380B400AF054B9B6892
:1091C800044A43F48043936000BFBD465DF8047BC6
:1091D800704700BF0070004080B588B000AF78606D
:1091E8007B68002B01D10123FEE27B681B6803F03A
:1091F8000103002B75D0974B9B6803F00C03BB61F0
:10920800944BDB6803F003037B61BB690C2B02D131
:109218007B69032B02D0BB69082B0BD18D4B1B68D4
:1092280003F40033002B5BD07B685B68002B57D1BD
:109238000123D9E27B685B68B3F5803F06D1854B93
:109248001B68844A43F4803313601DE07B685B68C5
:10925800B3F5A02F0CD17F4B1B687E4A43F48023C3
:1092680013607C4B1B687B4A43F4803313600BE02C
:10927800784B1B68774A23F480331360754B1B685F
:10928800744A23F4802313607B685B68002B13D037
:10929800FFF736FC386108E0FFF732FC02463B690D
:1092A800D31A642B01D903239EE26A4B1B6803F48B
:1092B8000033002BF0D014E0FFF722FC386108E0FF
:1092C800FFF71EFC02463B69D31A642B01D903231E
:1092D8008AE2604B1B6803F40033002BF0D100E0F6
:1092E80000BF7B681B6803F00203002B75D0594B45
:1092F8009B6803F00C03BB61564BDB6803F0030368
:109308007B61BB690C2B02D17B69022B02D0BB6944
:10931800042B1FD14F4B1B6803F48063002B05D02F
:109328007B68DB68002B01D101235DE2494B5B6858
:1093380023F0FE427B681B691B06464913434B60BA
:10934800454B1B681846FFF78FFB0346002B43D09D
:10935800012349E27B68DB68002B23D03D4B1B6867
:109368003C4A43F480731360FFF7CAFB386108E096
:10937800FFF7C6FB02463B69D31A022B01D9032328
:1093880032E2344B1B6803F48063002BF0D0314B7E
:109398005B6823F0FE427B681B691B062D4913435B
:1093A8004B601AE02B4B1B682A4A23F48073136026
:1093B800FFF7A6FB386108E0FFF7A2FB02463B690E
:1093C800D31A022B01D903230EE2224B1B6803F4A4
:1093D8008063002BF0D100E000BF7B681B6803F0BE
:1093E8000803002B41D07B685B69002B1CD0194B0C
:1093F800D3F89430174A43F00103C2F89430FFF7CA
:109408007FFB386108E0FFF77BFB02463B69D31A14
:10941800022B01D90323E7E10E4BD3F8943003F074
:109428000203002BEFD020E00A4BD3F89430094A0E
:1094380023F00103C2F89430FFF762FB38610DE0B6
:10944800FFF75EFB02463B69D31A022B06D90323BA
:10945800CAE100BF00100240040000208C4BD3F882
:10946800943003F00203002BEAD17B681B6803F0F9
:109478000403002B00F0A6800023FB77844B9B6D30
:1094880003F08053002B01D1012300E00023002BBF
:109498000DD07F4B9B6D7E4A43F0805393657C4B88
:1094A8009B6D03F08053FB60FB680123FB77794BCE
:1094B8001B6803F48073002B18D1764B1B68754A20
:1094C80043F480731360FFF71BFB386108E0FFF774
:1094D80017FB02463B69D31A022B01D9032383E108
:1094E8006C4B1B6803F48073002BF0D07B689B687F
:1094F800012B08D1664BD3F89030654A43F001033D
:10950800C2F8903024E07B689B68052B10D1604B33
:10951800D3F890305E4A43F00403C2F890305C4BB5
:10952800D3F890305A4A43F00103C2F890300FE064
:10953800574BD3F89030564A23F00103C2F89030C5
:10954800534BD3F89030524A23F00403C2F89030BA
:109558007B689B68002B16D0FFF7D2FA38610AE0C7
:10956800FFF7CEFA02463B69D31A41F2883293429A
:1095780001D9032338E1464BD3F8903003F00203B6
:10958800002BEDD015E0FFF7BBFA38610AE0FFF7D2
:10959800B7FA02463B69D31A41F28832934201D99D
:1095A800032321E13A4BD3F8903003F00203002B58
:1095B800EDD1FB7F012B05D1354B9B6D344A23F050
:1095C800805393657B681B6803F02003002B3CD015
:1095D8007B689B69002B1CD02D4BD3F898302C4A04
:1095E80043F00103C2F89830FFF78AFA386108E0BF
:1095F800FFF786FA02463B69D31A022B01D90323E7
:10960800F2E0234BD3F8983003F00203002BEFD09D
:109618001BE01F4BD3F898301D4A23F00103C2F812
:109628009830FFF76DFA386108E0FFF769FA0246EB
:109638003B69D31A022B01D90323D5E0144BD3F885
:10964800983003F00203002BEFD17B68DB69002B15
:1096580000F0C9800E4B9B6803F00C030C2B00F044
:1096680083807B68DB69022B5ED1094B1B68084A43
:1096780023F080731360FFF743FA38610CE0FFF7BB
:109688003FFA02463B69D31A022B05D90323ABE004
:109698000010024000700040554B1B6803F0007337
:1096A800002BECD1524BDA68524B13407A68116A9E
:1096B8007A68526A013A120111437A68926A120270
:1096C80011437A68126B5208013A520511437A68BD
:1096D800526B5208013A520611437A68D26AD2068E
:1096E8000A4343491343CB60414B1B68404A43F04C
:1096F800807313603E4BDB683D4A43F08073D36050
:10970800FFF7FEF9386108E0FFF7FAF902463B690E
:10971800D31A022B01D9032366E0354B1B6803F0EB
:109728000073002BF0D05EE0314B1B68304A23F009
:1097380080731360FFF7E4F9386108E0FFF7E0F998
:1097480002463B69D31A022B01D903234CE0284B6C
:109758001B6803F00073002BF0D1254BDA6824490D
:10976800254B1340CB603EE07B68DB69012B01D1C0
:10977800012339E01E4BDB687B617B6903F0030240
:109788007B681B6A9A422CD17B6903F0F0027B68E4
:109798005B6A013B1B019A4223D17B6903F4FE42B9
:1097A8007B689B6A1B029A421BD17B6903F0784253
:1097B8007B68DB6ADB069A4213D17B6903F4C0023B
:1097C8007B681B6B5B08013B5B059A4209D17B698F
:1097D80003F0C0627B685B6B5B08013B5B069A42E7
:1097E80001D0012300E0002318462037BD4680BD84
:1097F800001002400C809F01FCFFEEFE80B586B091
:1098080000AF7860396000237B617B68002B01D151
:1098180001231EE1914B1B6803F00F033A689A423B
:1098280010D98E4B1B6823F00F028C493B681343F9
:109838000B608A4B1B6803F00F033A689A4201D009
:10984800012306E17B681B6803F00103002B73D03A
:109858007B685B68032B29D1814B1B6803F000737D
:10986800002B01D10123F4E000F09EF938613B6937
:109878007C4A93423FD97A4B9B6803F0F003002B54
:1098880009D07B681B6803F00203002B33D07B6888
:109898009B68002B2FD1724B9B6823F0F003704A12
:1098A80043F08003936080237B6124E07B685B68DE
:1098B800022B07D16A4B1B6803F40033002B09D134
:1098C8000123C6E0664B1B6803F48063002B01D1BB
:1098D8000123BEE000F0CEF838613B69614A93424B
:1098E80009D95F4B9B6823F0F0035D4A43F080037E
:1098F800936080237B615A4B9B6823F003027B684B
:109908005B68574913438B60FFF7FAF8F8600AE081
:10991800FFF7F6F80246FB68D31A41F28832934201
:1099280001D9032395E04E4B9B6803F00C027B683A
:109938005B689B009A42EBD17B681B6803F00203CB
:10994800002B23D07B681B6803F00403002B05D091
:10995800434B9B68424A43F4E06393607B681B680F
:1099680003F00803002B07D03D4B9B6823F47C537E
:109978003B4A43F4E0639360394B9B6823F0F00261
:109988007B689B68364913438B6008E07B69802BB2
:1099980005D1334B9B68324A23F0F00393602F4B79
:1099A8001B6803F00F033A689A421DD22B4B1B68C1
:1099B80023F00F0229493B6813430B60FFF7A0F817
:1099C800F8600AE0FFF79CF80246FB68D31A41F2F8
:1099D8008832934201D903233BE0204B1B6803F0F4
:1099E8000F033A689A42EDD17B681B6803F00403C1
:1099F800002B08D01A4B9B6823F4E0627B68DB6875
:109A0800174913438B607B681B6803F00803002B1E
:109A180009D0134B9B6823F460527B681B69DB00F9
:109A28000F4913438B6000F025F802460C4B9B68E6
:109A38001B0903F00F030C49CB5C03F01F0322FA48
:109A480003F30A4A13600A4B1B681846FFF70CF821
:109A5800034618461837BD4680BD00BF00200240A7
:109A68000010024000B4C40494B3000800000020B1
:109A78000400002080B487B000AF2C4B9B6803F033
:109A88000C03042B02D12A4B3B6147E0274B9B6810
:109A980003F00C03082B02D1264B3B613EE0234B1D
:109AA8009B6803F00C030C2B36D1204BDB6803F0CA
:109AB8000303FB601D4BDB681B0903F00F03013335
:109AC800BB60FB68032B0CD11A4ABB68B2FBF3F3EB
:109AD800164AD268120A02F07F0202FB03F37B6186
:109AE8000CE0134ABB68B2FBF3F3104AD268120ABF
:109AF80002F07F0202FB03F37B6100BF0B4BDB68C4
:109B08005B0E03F0030301335B007B607A697B68BB
:109B1800B2FBF3F33B6101E000233B613B6918466C
:109B28001C37BD465DF8047B704700BF001002403B
:109B38000024F40000366E0180B400AF034B1B68AC
:109B48001846BD465DF8047B704700BF0000002042
:109B580080B500AFFFF7F0FF0246064B9B681B0A73
:109B680003F007030449CB5C03F01F0322FA03F355
:109B7800184680BD00100240A4B3000880B500AFAD
:109B8800FFF7DAFF0246064B9B68DB0A03F0070380
:109B98000449CB5C03F01F0322FA03F3184680BD87
:109BA80000100240A4B3000880B487B000AF1E4B79
:109BB800DB6803F003033B611B4BDB681B0903F005
:109BC8000F030133FB603B69032B0CD1174AFB6879
:109BD800B2FBF3F3144AD268120A02F07F0202FBC6
:109BE80003F37B610CE0124AFB68B2FBF3F30E4A05
:109BF800D268120A02F07F0202FB03F37B6100BF06
:109C0800094BDB685B0E03F0030301335B00BB60A9
:109C18007A69BB68B2FBF3F37B607B6818461C3734
:109C2800BD465DF8047B70470010024000366E01A7
:109C38000024F40080B582B000AF78607B68002B08
:109C480001D1012342E07B68D3F88830002B06D18C
:109C58007B68002283F88420786800F03BF87B68F2
:109C68002422C3F888207B681B681A687B681B68F5
:109C780022F001021A607B689B6A002B02D0786888
:109C880000F098FB786800F0C9F80346012B01D171
:109C980001231BE07B681B685A687B681B6822F4F9
:109CA80090425A607B681B689A687B681B6822F040
:109CB8002A029A607B681B681A687B681B6842F0F6
:109CC80001021A60786800F017FC03461846083746
:109CD800BD4680BD80B483B000AF786000BF0C374C
:109CE800BD465DF8047B704780B58AB002AFF86066
:109CF800B9603B601346FB80FB68D3F88830202BA3
:109D080040F08680BB68002B02D0FB88002B01D175
:109D180001237EE0FB680022C3F89020FB68212223
:109D2800C3F88820FEF7ECFE7861FB68FA88A3F890
:109D38005420FB68FA88A3F85620FB689B68B3F5A3
:109D4800805F08D1FB681B69002B04D10023FB61ED
:109D5800BB68BB6103E0BB68FB610023BB613AE001
:109D68003B6800937B6900228021F86800F06EFC54
:109D78000346002B05D0FB682022C3F88820032364
:109D880047E0FB69002B0BD1BB691B881A46FB68AF
:109D98001B68C2F308029A62BB690233BB6107E021
:109DA800FB691A78FB681B689A62FB690133FB61DF
:109DB800FB68D3F8883003F02103212B09D1FB6815
:109DC800B3F856309BB2013B9AB2FB68A3F8562011
:109DD80001E001231DE0FB68B3F856309BB2002B6D
:109DE800BED13B6800937B6900224021F86800F0EF
:109DF8002DFC0346002B05D0FB682022C3F88820E1
:109E0800032306E0FB682022C3F88820002300E033
:109E1800022318462037BD4680BD00002DE9B04F0B
:109E28008CB000AF7861002387F82A307B699A6884
:109E38007B691B691A437B695B691A437B69DB6928
:109E48001343FB627B691B681A68AB4B13407A6942
:109E58001268F96A0B4313607B691B685B6823F41B
:109E680040517B69DA687B691B680A435A607B69E1
:109E78009B69FB627B691B68A04A934204D07B699B
:109E88001B6AFA6A1343FB627B691B689B6823F0B1
:109E98006E4323F430637A691268F96A0B4393605E
:109EA8007B691B68DB6A23F00F017B695A6A7B694F
:109EB8001B680A43DA627B691B68914A934225D181
:109EC800904BD3F8883003F00303032B1AD801A270
:109ED80052F823F0ED9E0008FD9E0008F59E00084C
:109EE800059F0008012387F82B30D6E0022387F866
:109EF8002B30D2E0042387F82B30CEE0082387F8F4
:109F08002B30CAE0102387F82B30C6E07B691B682A
:109F18007D4A934238D17B4BD3F8883003F00C0349
:109F28000C2B2DD801A252F823F000BF699F00081E
:109F3800899F0008899F0008899F0008799F000869
:109F4800899F0008899F0008899F0008719F000861
:109F5800899F0008899F0008899F0008819F000841
:109F6800002387F82B3098E0022387F82B3094E001
:109F7800042387F82B3090E0082387F82B308CE0F7
:109F8800102387F82B3088E07B691B685F4A93426F
:109F980025D15C4BD3F8883003F03003302B16D032
:109FA800302B18D8202B0AD0202B14D8002B02D005
:109FB800102B08D00FE0002387F82B306DE0022328
:109FC80087F82B3069E0042387F82B3065E00823F5
:109FD80087F82B3061E0102387F82B305DE07B6930
:109FE8001B684B4A934225D1464BD3F8883003F07F
:109FF800C003C02B16D0C02B18D8802B0AD0802BBA
:10A0080014D8002B02D0402B08D00FE0002387F88B
:10A018002B3042E0022387F82B303EE0042387F8F8
:10A028002B303AE0082387F82B3036E0102387F8E6
:10A038002B3032E07B691B68304A93422AD1314B7E
:10A04800D3F8883003F44063B3F5406F1AD0B3F502
:10A05800406F1BD8B3F5006F0CD0B3F5006F15D85F
:10A06800002B03D0B3F5806F08D00FE0002387F8EA
:10A078002B3012E0022387F82B300EE0042387F8F8
:10A088002B300AE0082387F82B3006E0102387F8E6
:10A098002B3002E0102387F82B307B691B68174AA6
:10A0A800934240F0A88097F82B30082B34D801A2AF
:10A0B80052F823F0E1A0000821A10008E9A0000857
:10A0C80021A10008EFA0000821A1000821A1000893
:10A0D80021A10008F7A00008FFF73AFD786221E007
:10A0E8000C4B7B621EE0FFF7C5FC78621AE04FF468
:10A0F80000437B6216E000BFF369FFCF0080004099
:10A108000038014000100240004400400048004070
:10A11800004C00400024F40000237B62012387F8F0
:10A128002A3000BF7B6A002B00F02A817B695B6ABA
:10A138009E4A32F813301A467B6AB3FBF2F3BB61CE
:10A148007B695A6813465B001344BA699A4205D37F
:10A158007B695B681B03BA699A4203D9012387F8B4
:10A168002A300DE17B6A0022BB60FA607B695B6A7A
:10A178008E4A32F813309BB200223B607A60D7E9EE
:10A188000023D7E90201FEF743F802460B461046C2
:10A1980019464FF000024FF000030B0243EA106328
:10A1A800020279694968490800200C46054612EB05
:10A1B800040843EB05097B695B6800229A469346CD
:10A1C80052465B4640464946FEF722F802460B4691
:10A1D80013463B623B6AB3F5407F08D33B6AB3F54D
:10A1E800801F04D27B691B683A6ADA60C8E00123E1
:10A1F80087F82A30C4E07B69DB69B3F5004F67D183
:10A2080097F82B30082B28D801A252F823F000BF6A
:10A218003DA2000845A200084DA2000863A200085C
:10A2280053A2000863A2000863A2000863A2000802
:10A238005BA20008FFF78CFC786214E0FFF79EFC35
:10A24800786210E05A4B7B620DE0FFF713FC7862EE
:10A2580009E04FF400437B6205E000237B620123A1
:10A2680087F82A3000BF7B6A002B00F089807B6961
:10A278005B6A4E4A32F813301A467B6AB3FBF2F334
:10A288005A007B695B685B081A447B695B68B2FBB0
:10A29800F3F33B623B6A0F2B16D93B6AB3F5803F59
:10A2A80012D23B6A9BB223F00F03FB833B6A5B0825
:10A2B8009BB203F007039AB2FB8B1343FB837B69C2
:10A2C8001B68FA8BDA605BE0012387F82A3057E0D5
:10A2D80097F82B30082B28D801A252F823F000BF9A
:10A2E8000DA3000815A300081DA3000833A3000848
:10A2F80023A3000833A3000833A3000833A30008EE
:10A308002BA30008FFF724FC786214E0FFF736FC63
:10A31800786210E0264B7B620DE0FFF7ABFB7862BA
:10A3280009E04FF400437B6205E000237B620123D0
:10A3380087F82A3000BF7B6A002B21D07B695B6AD3
:10A348001A4A32F813301A467B6AB3FBF2F27B6979
:10A358005B685B081A447B695B68B2FBF3F33B629A
:10A368003B6A0F2B09D93B6AB3F5803F05D23B6A9C
:10A378009AB27B691B68DA6002E0012387F82A3009
:10A388007B690122A3F86A207B690122A3F868206F
:10A398007B6900225A677B6900229A6797F82A30FE
:10A3A80018463037BD46BDE8B08F00BFACB30008D3
:10A3B8000024F40080B483B000AF78607B689B6AA7
:10A3C80003F00803002B0AD07B681B685B6823F442
:10A3D80000417B689A6B7B681B680A435A607B68FC
:10A3E8009B6A03F00103002B0AD07B681B685B683B
:10A3F80023F400317B68DA6A7B681B680A435A6079
:10A408007B689B6A03F00203002B0AD07B681B68F9
:10A418005B6823F480317B681A6B7B681B680A438E
:10A428005A607B689B6A03F00403002B0AD07B68A0
:10A438001B685B6823F480217B685A6B7B681B6808
:10A448000A435A607B689B6A03F01003002B0AD00A
:10A458007B681B689B6823F480517B68DA6B7B6898
:10A468001B680A439A607B689B6A03F02003002BF1
:10A478000AD07B681B689B6823F400517B681A6CC0
:10A488007B681B680A439A607B689B6A03F04003F9
:10A49800002B1AD07B681B685B6823F480117B68EB
:10A4A8005A6C7B681B680A435A607B685B6CB3F51F
:10A4B800801F0AD17B681B685B6823F4C0017B6836
:10A4C8009A6C7B681B680A435A607B689B6A03F036
:10A4D8008003002B0AD07B681B685B6823F400218B
:10A4E8007B68DA6C7B681B680A435A6000BF0C37CC
:10A4F800BD465DF8047B704780B598B002AF7860C0
:10A508007B680022C3F89020FEF7FAFA78657B682A
:10A518001B681B6803F00803082B2FD16FF07E43DC
:10A5280000937B6D00224FF40011786800F08EF8DC
:10A538000346002B22D07B681B68BB63BB6B53E8C8
:10A54800003F7B637B6B23F080033B657B681B6864
:10A558001A463B6D7B643A64396C7A6C41E8002397
:10A56800FB63FB6B002BE6D17B682022C3F88820B5
:10A578007B68002283F88420032363E07B681B68E0
:10A588001B6803F00403042B49D16FF07E4300934A
:10A598007B6D00224FF48001786800F057F803467D
:10A5A800002B3CD07B681B687B627B6A53E8003FCA
:10A5B8003B623B6A23F49073FB647B681B681A4612
:10A5C800FB6C3B63FA62F96A3A6B41E80023BB62B1
:10A5D800BB6A002BE6D17B681B6808333B613B698B
:10A5E80053E8003FFB60FB6823F00103BB647B6812
:10A5F8001B680833BA6CFA61BB61B969FA6941E84A
:10A6080000237B617B69002BE5D17B682022C3F89E
:10A618008C207B68002283F88420032312E07B6867
:10A628002022C3F888207B682022C3F88C207B680E
:10A638000022DA667B6800221A677B68002283F8AA
:10A648008420002318465837BD4680BD80B584B0A5
:10A6580000AFF860B9603B601346FB714FE0BB691F
:10A66800B3F1FF3F4BD0FEF74BFA02463B68D31AD3
:10A67800BA699A4202D3BB69002B01D103234EE089
:10A68800FB681B681B6803F00403002B37D0BB680A
:10A69800802B34D0BB68402B31D0FB681B68DB694A
:10A6A80003F00803082B10D1FB681B6808221A6204
:10A6B800F86800F038F8FB680822C3F89020FB68B7
:10A6C800002283F88420012329E0FB681B68DB69EA
:10A6D80003F40063B3F5006F11D1FB681B684FF4F6
:10A6E80000621A62F86800F01EF8FB682022C3F8BE
:10A6F8009020FB68002283F8842003230FE0FB6886
:10A708001B68DA69BB681340BA689A420CBF012318
:10A718000023DBB21A46FB799A42A0D000231846E0
:10A728001037BD4680BD80B495B000AF78607B68B7
:10A738001B687B637B6B53E8003F3B633B6B23F4F5
:10A748009073FB647B681B681A46FB6C3B64FA6376
:10A75800F96B3A6C41E80023BB63BB6B002BE6D175
:10A768007B681B6808333B623B6A53E8003FFB6128
:10A77800FB6923F0805323F00103BB647B681B68EB
:10A788000833BA6CFA62BB62B96AFA6A41E8002314
:10A798007B627B6A002BE3D17B68DB6E012B18D1CF
:10A7A8007B681B68FB60FB6853E8003FBB60BB68C5
:10A7B80023F010037B647B681B681A467B6CBB61C3
:10A7C8007A617969BA6941E800233B613B69002BEA
:10A7D800E6D17B682022C3F88C207B680022DA66E9
:10A7E8007B6800225A6700BF5437BD465DF8047B7A
:10A7F800704780B485B000AF78607B6893F8843088
:10A80800012B01D1022327E07B68012283F88420F1
:10A818007B682422C3F888207B681B681B68FB6060
:10A828007B681B681A687B681B6822F001021A6043
:10A83800FB6823F00053FB607B6800225A667B6844
:10A848001B68FA681A607B682022C3F888207B6836
:10A85800002283F88420002318461437BD465DF88B
:10A86800047B704780B584B000AF786039607B683E
:10A8780093F88430012B01D102232DE07B6801225B
:10A8880083F884207B682422C3F888207B681B68AF
:10A898001B68FB607B681B681A687B681B6822F072
:10A8A80001021A607B681B689B6823F060417B6823
:10A8B8001B683A680A439A60786800F04FF87B682A
:10A8C8001B68FA681A607B682022C3F888207B68B6
:10A8D800002283F88420002318461037BD4680BD27
:10A8E80080B584B000AF786039607B6893F88430B5
:10A8F800012B01D102232DE07B68012283F88420FB
:10A908007B682422C3F888207B681B681B68FB606F
:10A918007B681B681A687B681B6822F001021A6052
:10A928007B681B689B6823F060617B681B683A68DA
:10A938000A439A60786800F011F87B681B68FA6827
:10A948001A607B682022C3F888207B68002283F87D
:10A958008420002318461037BD4680BD80B485B0DA
:10A9680000AF78607B685B6E002B08D17B680122A2
:10A97800A3F86A207B680122A3F8682031E0082345
:10A98800FB730823BB737B681B689B685B0EDBB299
:10A9980003F007037B737B681B689B685B0FDBB264
:10A9A80003F007033B73BB7B3A7B11498A5C02FBCC
:10A9B80003F33A7B0F498A5C93FBF2F39AB27B6804
:10A9C800A3F86A20FB7B7A7B09498A5C02FB03F3C4
:10A9D8007A7B08498A5C93FBF2F39AB27B68A3F806
:10A9E800682000BF1437BD465DF8047B704700BF80
:10A9F800C4B30008CCB30008002310B50446C0E96E
:10AA08000033C0E90433836081814366C281836176
:10AA1800194608225C3000F0E7F90D4B63620D4BD4
:10AA2800A3620D4BE3620D4B23630D4B24629C42E2
:10AA380006D003F16802944202D0D0339C4205D17B
:10AA480004F15800BDE8104000F046BA10BD00BF40
:10AA580045AC000867AC00089FAC0008C5AC00080E
:10AA680020010020024A0349034800F06BB800BFE8
:10AA78000C000020DDB100081C00002041680C4BD0
:10AA8800994210B5044601D000F0A4FBA168094B17
:10AA9800994202D0204600F09DFBE168064B99429E
:10AAA80004D02046BDE8104000F094BB10BD00BFA4
:10AAB8002001002088010020F00100200C4B0D4AE5
:10AAC8000D4810B504211A600022FFF795FF0A4BC4
:10AAD80001221C46092103F16800FFF78DFF04F1EC
:10AAE800D0000222BDE810401221FFF785BF00BF49
:10AAF800580200206DAA000820010020014800F03B
:10AB0800ECB900BF61020020014800F0E7B900BFBE
:10AB18006102002010B50446FFF7F0FF236A1BB15D
:10AB2800BDE81040FFF7F0BF044B2362044B1B68DD
:10AB3800002BF5D1FFF7C2FFF2E700BF85AA000896
:10AB4800580200202DE9F843074688461446002697
:10AB5800D4E90195B9F1010905D52468002CF7D18C
:10AB68003046BDE8F883AB89012B07D9B5F90E301B
:10AB7800013303D029463846C04706436835E9E71C
:10AB8800036A70B5846805460E460BB9FFF7C2FF25
:10AB9800636EDB0705D4A389980502D4A06D00F085
:10ABA8009CF9A389190702D52369002B35D12146C1
:10ABB800284600F0C5F880B34FF0FF35636EDA071A
:10ABC80005D4A3899B0502D4A06D00F087F9284617
:10ABD80070BD002B04DAA269934217DB0A2915D04D
:10ABE80023685A1C22601970A36816F8011F013BDC
:10ABF800A3600029EDD1002B11DA22460A2128464C
:10AC080000F060F80130D7D00A25D7E72246284659
:10AC180000F058F80130E7D1CEE7013EE4E72368B9
:10AC28005A1C22600A221A70EEE70000024B014605
:10AC38001868FFF7A5BF00BF1800002010B50C4624
:10AC4800B1F90E1000F0FAF80028ABBF636DA389C4
:10AC58001B1823F48053ACBF6365A38110BD2DE995
:10AC6800F0411F468B89DB0505460C46164605D57F
:10AC7800B1F90E100223002200F0CEF8A389B4F92E
:10AC88000E1023F48053A38132463B462846BDE884
:10AC9800F04100F0E5B810B50C46B1F90E1000F01F
:10ACA800BBF8B4F90C30421C0BBF23F4805343F4B7
:10ACB8008053A381A38118BF606510BDB1F90E1040
:10ACC80000F09AB8F8B50E461446054618B1036A5E
:10ACD8000BB9FFF71FFFA369A360A3891A0701D562
:10ACE800236943B92146284600F02AF818B14FF0E5
:10ACF800FF373846F8BD23682269981A6369F6B2A7
:10AD08008342374605DC2146284600F063FA0028CE
:10AD1800EDD1A368013BA36023685A1C22601E7012
:10AD28006269431C9A4204D0A389DB07E1D50A2E45
:10AD3800DFD12146284600F04DFA0028D9D0D6E7C1
:10AD480038B5284B054618680C4618B1036A0BB984
:10AD5800FFF7E0FEB4F90C301A0721D4D80607D45F
:10AD680009222A6043F04003A3814FF0FF3030E00E
:10AD7800590712D5616B41B104F14403994202D0DD
:10AD8800284600F0ADF8002363630022B4F90C30C4
:10AD980062602269226023F0240343F00803A38140
:10ADA80022693AB99A0501D5180603D521462846DD
:10ADB80000F05CFAB4F90C3013F001020AD000225A
:10ADC800A26062695242A261226942B913F080000E
:10ADD800C8D138BD990758BF6269A260F4E700205E
:10ADE800F7E700BF1800002002440346934200D151
:10ADF800704703F8011BF9E738B5064D00230446F0
:10AE080008462B60FDF7F2FC431C02D12B6803B106
:10AE1800236038BD5C02002038B5074D044608465B
:10AE2800114600222A601A46FDF707FD431C02D18D
:10AE38002B6803B1236038BD5C02002038B5074D8C
:10AE480004460846114600222A601A46FDF795FC7A
:10AE5800431C02D12B6803B1236038BD5C0200207B
:10AE680038B5074D04460846114600222A601A469E
:10AE7800FDF7A0FC431C02D12B6803B1236038BD49
:10AE88005C020020014B1868704700BF18000020C2
:10AE980070B50D4B0D4D5B1B9C100026A64209D1C9
:10AEA80000F050FA0A4D0B4B5B1B9C100026A64283
:10AEB80005D170BD55F8043B98470136EEE755F8C3
:10AEC800043B98470136F2E7DCB30008DCB300081E
:10AED800DCB30008E0B30008704770477047000013
:10AEE80038B50546002941D051F8043C0C1F002B09
:10AEF800B8BFE41800F0E0F81D4A136833B963607E
:10AF080014602846BDE8384000F0DCB8A34208D9F0
:10AF1800206821188B4201BF19685B6809182160F5
:10AF2800EDE71A465B680BB1A342FAD911685018CD
:10AF3800A0420BD120680144501883421160E0D12F
:10AF480018685B68536008441060DAE702D90C237C
:10AF58002B60D6E7206821188B4204BF19685B680C
:10AF6800636004BF091821605460CAE738BD00BF98
:10AF78006802002070B50F4E0C463168054611B9BD
:10AF880000F0D0F930602146284600F0CBF9431C88
:10AF980003D14FF0FF34204670BDC41C24F00304D5
:10AFA800A042F8D0211A284600F0BCF90130F2D1AD
:10AFB800EFE700BF640200202DE9F843CD1C25F01F
:10AFC800030508350C2D38BF0C25002D064601DB7E
:10AFD800A94204D90C2333600020BDE8F883DFF8C8
:10AFE800D48000F069F8D8F800301C4644BB2946E4
:10AFF8003046FFF7BFFF431C044658D1D8F800403D
:10B008002746002F43D1002C4BD0236839463046C1
:10B0180004EB030900F086F9814542D121686D1AD5
:10B0280029463046FFF7A6FF01303AD023682B4463
:10B038002360D8F800305A6862BBC8F800700FE087
:10B048002268521B20D40B2A17D96119A342256004
:10B0580018BF5960636808BFC8F8001062514B6098
:10B06800304600F02FF804F10B00231D20F00700F4
:10B07800C21A1CBF1B1AA350AFE76268A3420CBFD9
:10B08800C8F800205A60EBE723466468AEE73C4600
:10B098007F68B6E71A465B68A342FBD1002353607A
:10B0A800DEE70C233360304600F00CF894E70560C7
:10B0B800D6E700BF680200200148FFF70EBF00BFB7
:10B0C800600200200148FFF709BF00BF60020020AE
:10B0D800B1F90C202DE9F041160705460C4651D46C
:10B0E8004B68002B02DC0B6C002B49DDE66A002E56
:10B0F80046D0002312F480522F682B6031D0626D45
:10B10800A389590705D56368D21A636B0BB1236C01
:10B11800D21A0023E66A216A2846B047421CB4F9CD
:10B128000C3006D129681D2946D8294ACA40D607B5
:10B1380042D500226260D9042269226004D5421CEB
:10B1480001D12B6803B96065616B2F60C1B104F14F
:10B158004403994202D02846FFF7C2FE00236363E6
:10B168000EE0216A01232846B0470246501CC7D189
:10B178002B68002BC4D01D2B01D0162B1AD12F60A1
:10B1880000201EE00F69002FFAD093070E6808BF51
:10B198004B690F6018BF0023A6EB07088B60B8F156
:10B1A800000FEDDD216AA66A43463A462846B047B5
:10B1B800002808DCB4F90C3043F04003A3814FF0B9
:10B1C800FF30BDE8F0810744A8EB0008E7E700BFBF
:10B1D8000100402038B50B6905460C4613B9002517
:10B1E800284638BD18B1036A0BB9FFF793FCB4F9C8
:10B1F8000C30002BF3D0626ED00704D4990502D42A
:10B20800A06DFFF76AFE28462146FFF761FF636ECF
:10B21800DA070546E4D4A3899B05E1D4A06DFFF7BE
:10B228005DFEDDE770B50C46B1F90E10002996B049
:10B2380015461E460ADAA18911F0800113D14FF490
:10B248008062002031602A6016B070BD6A4600F046
:10B2580047F80028EFDB019901F47041A1F500538C
:10B2680059425941EBE700214022EAE78B8973B53F
:10B278009E0705460C4607D504F147032360236162
:10B288000123636102B070BD01AB6A46FFF7CAFFD4
:10B29800009E28463146FFF78FFEB4F90C3038B9C6
:10B2A8009A05EFD423F0030343F00203A381E3E7F5
:10B2B80043F08003A381019B2060C4E90406002BAE
:10B2C800E0D0B4F90E10284600F01CF80028D9D0B8
:10B2D800A38923F0030343F00103A381D2E700000D
:10B2E80038B5074D00230446084611462B60FDF784
:10B2F80089FA431C02D12B6803B1236038BD00BF13
:10B308005C02002038B5064D0023044608462B6031
:10B31800FDF788FA431C02D12B6803B1236038BDBE
:10B328005C02002038B5064D0023044608462B6011
:10B33800FDF790FA431C02D12B6803B1236038BD96
:10B348005C020020F8B500BFF8BC08BC9E467047F8
:0CB35800F8B500BFF8BC08BC9E4670476A
:10B364004170706C69636174696F6E2069732073D6
:10B374007461727465640D004170706C696361740A
:10B38400696F6E2069732072756E6E696E670D0049
:10B394000000000000000000010203040607080981
:10B3A4000000000001020304010002000400060082
:10B3B40008000A000C00100020004000800000017A
:10B3C400010101030701000008040204080101014E
:08B3D40074CEFF7F01000000B0
:04B3DC00FD810008E7
:04B3E000D981000807
:10B3E4000024F40010000000010000000000000030
:10B3F40003000000200100201C00002000000000C9
:10B404002001002088010020F0010020000000003D
:10B414000000000000000000000000000000000028
:10B424000000000000000000000000000000000018
:10B434000000000000000000000000000000000008
:08B44400000000000000000000
:020000040801F1
:10FF0000544F4F4201000000010100000080000832
:10FF10000000000000000000008000080000000059
:04000005080089ED79
:00000001FF
